:020000040000FA
:100000007008002029020000690200000D020000B3
:100010006D0200006F02000071020000000000008D
:10002000000000000000000000000000730200005B
:100030007502000000000000770200007902000055
:100040007B0200007B0200007B0200007B020000BC
:100050007B0200007B0200007B0200007B020000AC
:100060007B0200007B0200007B0200007B0200009C
:100070007B0200007B0200007B0200007B0200008C
:100080007B0200007B0200007B0200007B0200007C
:100090007B0200007B0200007B0200007B0200006C
:1000A0007B0200007B0200007B0200007B0200005C
:1000B0007B0200007B0200007B0200007B0200004C
:1000C000990A0000C90A00007B0200007B020000C0
:1000D0007B0200007B0200007B0200007B0200002C
:1000E0007B0200007B0200007B0200007B0200001C
:1000F0007B0200007B0200007B0200007B0200000C
:100100007B0200007B0200007B0200007B020000FB
:100110007B0200007B0200007B0200007B020000EB
:100120007B0200007B0200007B0200007B020000DB
:100130007B0200007B0200007B0200007B020000CB
:100140007B0200007B0200007B0200007B020000BB
:100150007B0200007B0200007B0200007B020000AB
:100160007B0200007B0200007B0200007B0200009B
:100170007B0200007B0200007B0200007B0200008B
:100180007B0200007B0200007B0200007B0200007B
:100190007B0200007B0200007B0200007B0200006B
:1001A0007B0200007B0200007B0200007B0200005B
:1001B0007B0200007B0200007B0200007B0200004B
:1001C0007B0200007B0200007B0200007B0200003B
:1001D0007B0200007B0200007B0200007B0200002B
:1001E0007B0200007B0200007B0200007B0200001B
:1001F0007B020000DFF810D000F0ACF800480047A8
:10020000050E0000AFF30080700800200420714646
:10021000084202D0EFF3098001E0EFF30880714655
:10022000004A10472D08000014484FF059010160A2
:100230004FF0160101604FF08801016010484168DD
:1002400041F4804141600F48416841F00201416042
:10025000416841F0040141600B48804707484FF076
:100260000001016009480047FEE7FEE7FEE7FEE700
:10027000FEE7FEE7FEE7FEE7FEE7FEE700010040DF
:10028000000200400070004039090000F501000044
:100290002DE9F05F0546002092469B4688460646BB
:1002A000814640241BE0284641464746224600F04E
:1002B00041F853465A46C01A914110D31146184688
:1002C000224600F016F82D1A67EB01084F46224629
:1002D0000120002100F00DF817EB00094E41201E0F
:1002E000A4F10104DFDC484631462A464346BDE816
:1002F000F09F202A04DB203A00FA02F10020704728
:100300009140C2F1200320FA03F319439040704753
:1003100040EA01039B0703D009E008C9121F08C087
:10032000042AFAD203E011F8013B00F8013B521E07
:10033000F9D27047202A04DB203A21FA02F000218A
:10034000704721FA02F3D040C2F1200291400843E5
:1003500019467047064C074D06E0E06840F001037F
:1003600094E8070098471034AC42F6D3FFF746FFF5
:1003700014100000341000000448006840F480307D
:100380004FF08041C1F84002704700004002004039
:1003900010B50022002100F01F04012303FA04F22B
:1003A0000449032303EA907301EB83010B681343B1
:1003B0000B6010BD040200400349096801434FF07F
:1003C0008042C2F8001270470002004010B500F0F1
:1003D00081FA1A48006800F0070010B9184804684C
:1003E00029E01648006800F00700012803D11448EE
:1003F000006844081FE01148006800F00700022868
:1004000003D10F480068840815E00C48006800F02C
:100410000700032803D10A480068C4080BE0074816
:10042000006800F00700042803D1054800680409AB
:1004300001E003480468204610BD0000340200407B
:100440000000002010B500F045FA1A48006800F0DE
:10045000700010B91848046829E01648006800F0D8
:100460007000102803D11448006844081FE01148A8
:10047000006800F07000202803D10F48006884084D
:1004800015E00C48006800F07000302803D10A48DD
:100490000068C4080BE00748006800F070004028BE
:1004A00003D105480068040901E0034804682046B8
:1004B00010BD00003402004000000020F8B500200C
:1004C00018A636680096184E316801F4A02606B1C9
:1004D00027E001F40036B6F5003F09D101F400260B
:1004E000B6F5002F01D1114A00E0104A104618E07D
:1004F00001F40026B6F5002F01D10C4A00E00B4AAA
:10050000C1F381371DF80740C1F30806B31CC1F3DE
:100510004426751C96085E4315FB04F7B6FBF7F6F8
:10052000F000F8BD0102020440020040001BB700C9
:1005300010B500BF00BF00BF592041490860162018
:100540008905C1F800018820C1F80001C006D0F873
:1005500000010028F0D000BF3A48006820F0F00009
:100560004FF04021C1F840010D20FFF725FF192071
:1005700000F020F9FFF700FF334800686FF3130025
:1005800048F21E2108444FF08041C1F84002042087
:1005900000F010F90021022000F064F800202A4940
:1005A0000C3908600720FFF7F3FE2848FFF7F0FE3C
:1005B0000320FFF7EDFE0220FFF7EAFE0120FFF720
:1005C000E7FE2348FFF7E4FE2248FFF7E1FE22485A
:1005D000FFF7DEFE2148FFF7DBFE4FF0AC40FFF7F0
:1005E000D7FE1F48FFF7D4FE00221146174800F03F
:1005F00077F800222021174800F072F800224FF40B
:100600000071154800F06CF800224FF400511348B7
:1006100000F066F8002203214FF0AC4000F060F8D3
:1006200000224FF000410E4800F05AF800F052F955
:1006300000BF00204FF08041C1F8000100BF10BD95
:100640000001004040410040400200401CFE0340C9
:10065000160000800D0040660200805E0300C05E50
:100660000000E05770B504460D461C48006800F0D5
:1006700010064FF08040D0F8000240F00400174907
:1006800050390860102000F095F814484038006890
:1006900020F00700C01D4FF08041C1F810020F4844
:1006A0003038006820F00F002843C1F820020B48C2
:1006B0004038006820F007002043084940390860AE
:1006C00000F008F946B905485038006820F00400E9
:1006D0004FF08041C1F8000270BD000050020040A0
:1006E000F0B500230024C0F38725002D4CD0304DF9
:1006F0002D68EDB2012D2AD1C0F38145022D06D11E
:1007000000F01F051F2D02D1294C343433E0C0F313
:100710008145022D06D100F01F051D2D02D1244C6C
:10072000343428E0C0F38145022D02D1204C383406
:1007300021E0C0F38145032D02D11D4C3C341AE069
:10074000C0F381451A4E2C3606EB850413E0C0F346
:100750008145022D02D1164C38340CE0C0F381459E
:10076000032D02D1124C3C3405E0C0F38145104EFC
:100770002C3606EB85042568C0F38726C0F34417A2
:10078000BE40B54315432560C0F3426575B1C0F363
:100790000175074E1C3606EB85031D68C0F34266E3
:1007A000C0F30457BE40B5430D431D60F0BD0000CB
:1007B000F401004010B501460C4B1B685A0801209B
:1007C00000230B4C236004E0531E1A1E01D10020AD
:1007D00004E0084B1B680B408B42F5D100BF1AB9EF
:1007E0004FF0FF33024C236010BD000000000020DA
:1007F000640000205002004070B50346002011E064
:10080000012484400C4001258540AC4209D11C687C
:1008100046000325B540AC43450002FA05F52C43DC
:100820001C60401C1028EBD370BD0000044604A0DF
:1008300000F060F9204600F089FB00BFFEE70000F1
:10084000496E2048617264204661756C742048616D
:100850006E646C65720A000000204FF080414863AE
:100860000863C8638863486408648865704700004B
:1008700000BF59200749086016208905C1F800010A
:100880008820C1F80001C006D0F800010028F0D08F
:10089000704700000001004010B50446204600F0FB
:1008A00001F810BD00BF0A49896901F4000100295F
:1008B000F9D10A2809D10D21054A116000BF044968
:1008C000896901F400010029F9D1014908607047E4
:1008D0000000074070B5FFF7F1FD114908601148AD
:1008E000006800F00705022D02D10846046802E006
:1008F0000D4850F825400B481030006800F00F00FC
:10090000461CB4FBF6F0094908600846006808492F
:1009100008444900B0FBF1F00649086070BD0000D2
:1009200008000020100200400C0000200000002001
:1009300020A10700040000202048006840F4700057
:100940001E4908601E48C06C20F00F0040F00800EF
:100950001B49C8641B48006840F480204FF0804168
:10096000C1F898020846D0F8080240F00200C1F829
:1009700008021548D0F8040100F0F7301249C1F818
:1009800004010846D0F8080100F0F730C1F808016A
:100990008804D0F8080220F002000A499039086063
:1009A00000BF4FF04020D0F8400120F0F0004FF0A1
:1009B0004021C1F8400100BF7047000088ED00E011
:1009C00000C00040980200400010044070B588B09C
:1009D000044620221A496846FFF79AFC19488442C7
:1009E00004D119480068C0F3022513E01748844277
:1009F00004D115480068C0F302350BE01448844266
:100A000004D111480068C0F3024503E00E480068B5
:100A1000C0F30255022D0DD10A48844202D00B4882
:100A2000844203D1FFF7D2FC064605E0FFF70AFD3A
:100A3000064601E05DF82560304608B070BD000054
:100A4000F40F0000000005401402004000010540C2
:100A5000001005402DE9F047064689461746304606
:100A6000FFF7B4FF804600240025B7EB580F01D9EB
:100A7000022406E0B8FBF7F4250E15B1681CB4FBA0
:100A8000F0F449EA050030607460681C6043B8FB0C
:100A9000F0F0BDE8F087000000BF01200749886042
:100AA00000BF0748008820B105480088401E04495F
:100AB00008800120034908707047000000000540CD
:100AC000300000203200002000BF01200149886072
:100AD00000BF70470001054030B5054C616040F033
:100AE000800444EA420444EA0314014D2C6030BD02
:100AF000000004400FB4054B10B503A9044A029846
:100B000000F018F810BC5DF814FB0000F50D0000B3
:100B10006800002002E008C8121F08C1002AFAD1AC
:100B200070477047002001E001C1121F002AFBD16D
:100B3000704700002DE9FF4F8DB09B460F460446DD
:100B4000002606E025280BD05A460F999047641CD2
:100B5000761C20780028F5D111B03046BDE8F08F22
:100B60000025A8460122984900E0054314F8013FFA
:100B7000203B02FA03F00842F7D120782E2817D143
:100B800014F8010F45F004052A280ED06FF02F024B
:100B90002078A0F1300109290AD808EB880102EB7E
:100BA000410100EB0108641CF2E757F8048B641C58
:100BB00020786C280DD004DC4C2812D06A2811D182
:100BC00004E074280DD07A280CD10AE045F4001511
:100BD00007E0617845F48015814202D1641C05F577
:100BE0008015641C2078692844D008DC0028B3D024
:100BF000582867D063280FD0642808D13AE07028BD
:100C000065D0732812D075285AD078285AD05A4601
:100C10000F999047761CD5E017F8040B8DF800006B
:100C200000208DF80100E946012003E057F8049BFD
:100C30004FF0FF3069074FF0000501D40AE06D1C4A
:100C400045450DDA8542FADB19F805100029F6D181
:100C500006E06D1C8542FCDB19F805100029F8D16F
:100C60002E4404E019F8010B5A460F9990476D1E67
:100C7000F8D2A7E00A200021CDE90801C5F302500F
:100C800002280CD001CFC117021E71F100020CDA4C
:100C90000023D0EB030063EB01012D2208E0FF1DD0
:100CA00027F00707F7E80201EEE72A0504D52B2213
:100CB0008DF8282001223CE0EA073AD02022F7E70D
:100CC0000A2000E010200021CDE9080107E01020F3
:100CD000002145F00405CDE908014FF00808C5F3EF
:100CE0000250022810D001CF00214FF0000A2A073D
:100CF00020D52278702A0DD0DDE908C38CF0100CC5
:100D00005CEA030C0CD015E0FF1D27F00707F7E89D
:100D10000201EAE740228DF828204FF0010A0CE09A
:100D200050EA010306D030238DF828308DF82920B1
:100D3000022292462278582A04D024A20DF12009DA
:100D40000B9209E026A2F9E7DDE90823FFF7A0FAF4
:100D50000B9B9B5C09F8013D50EA0102F4D1ADEB1D
:100D6000090020300890680701D44FF00108089965
:100D7000884503DD0898A8EB000000E000208046CD
:100D8000002506E00AA85A46405D0F9990476D1C61
:100D9000761C5545F6DB04E030205A460F99904703
:100DA000761CB8F10001A8F10108F5DC05E019F89E
:100DB000010B5A460F999047761C0899481E0890D7
:100DC0000029F4DC641CC4E6092801003031323308
:100DD0003435363738396162636465660000000077
:100DE0003031323334353637383941424344454661
:100DF0000000000070B504460D462046FFF74CFD8C
:100E0000204670BD72B6FFF733FD4948006840F4D4
:100E100060504FF08041C1F80002FFF789FBFFF7F7
:100E20001BFD002043490860FFF722FD01231A46FD
:100E300002214FF4A060FFF74FFE00BF00203E49A3
:100E4000086000BF0122FF214FF04020FFF7D4FCD3
:100E50004FF47A724FF000613848FFF7FBFD00BF96
:100E60003648006840F000503449086000BF202038
:100E700000280DDB00BF00BF00F01F0201219140E0
:100E80004209920002F1E022C2F8001100BF00BF47
:100E900000BF00BF2948006840F080402749086033
:100EA00000BF62B642E045F6A52025498860254886
:100EB000008800283AD1C8202249088022480068CA
:100EC00008B9012000E000201F49086008460068BA
:100ED00008B9012000E000201B49091D0860081F17
:100EE0000068091D08601848006808B9012000E082
:100EF000002015490C31086013480068091D08607E
:100F00001148006808B9012000E000200E491431A2
:100F100008600D480068091D08600B48006808B9A2
:100F2000012000E0002008491C310860BBE70000F8
:100F30000002004008ED00E0000100400000054014
:100F400000000440300000200048004010B5044676
:100F500010A02168FFF7CEFD11A06168FFF7CAFD60
:100F600012A0A168FFF7C6FD13A0E168FFF7C2FD5C
:100F700014A02169FFF7BEFD15A06169FFF7BAFD56
:100F800016A0A169FFF7B6FD17A0E169FFF7B2FD52
:100F900010BD0000723020203D20307825780A00F6
:100FA000723120203D20307825780A0072322020CE
:100FB0003D20307825780A00723320203D2030789B
:100FC00025780A00723132203D20307825780A00D9
:100FD0006C7220203D20307825780A007063202034
:100FE0003D20307825780A00707372203D203078DB
:100FF00025780A00001BB7000080000000000000F8
:1010000000000000000000001027000000000000A9
:10101000001BB7003410000000000020700000002A
:10102000140B0000A4100000700000200008000055
:10103000240B0000001BB7000C000000001BB700D1
:10104000001BB70000800000000000001027000017
:10105000000000000000000000000000001BB700BE
:101060000000000000000000000000000000000080
:101070000000000000000000000000000000000070
:101080000000000000000000000000000000000060
:101090000000000000000000000000000000000050
:0410A000000000004C
:04000005000001F501
:00000001FF
